{"contracts/SecureContract.sol":{"SecureContract":{"abi":[{"stateMutability":"payable","type":"fallback"},{"inputs":[{"internalType":"address","name":"","type":"address"}],"name":"balances","outputs":[{"internalType":"uint256","name":"","type":"uint256"}],"stateMutability":"view","type":"function"},{"inputs":[],"name":"deposit","outputs":[],"stateMutability":"payable","type":"function"},{"inputs":[],"name":"withdraw","outputs":[],"stateMutability":"nonpayable","type":"function"},{"stateMutability":"payable","type":"receive"}],"evm":{"bytecode":{"linkReferences":{},"object":"6080604052348015600f57600080fd5b5061077f8061001f6000396000f3fe6080604052600436106100385760003560e01c806327e235e3146100b35780633ccfd60b146100f0578063d0e30db01461010757610078565b36610078576040517f08c379a000000000000000000000000000000000000000000000000000000000815260040161006f906103c0565b60405180910390fd5b6040517f08c379a00000000000000000000000000000000000000000000000000000000081526004016100aa90610452565b60405180910390fd5b3480156100bf57600080fd5b506100da60048036038101906100d591906104d5565b610111565b6040516100e7919061051b565b60405180910390f35b3480156100fc57600080fd5b50610105610129565b005b61010f6102a3565b005b60006020528060005260406000206000915090505481565b60008060003373ffffffffffffffffffffffffffffffffffffffff1673ffffffffffffffffffffffffffffffffffffffff168152602001908152602001600020549050600081116101af576040517f08c379a00000000000000000000000000000000000000000000000000000000081526004016101a690610582565b60405180910390fd5b60008060003373ffffffffffffffffffffffffffffffffffffffff1673ffffffffffffffffffffffffffffffffffffffff1681526020019081526020016000208190555060003373ffffffffffffffffffffffffffffffffffffffff1682604051610219906105d3565b60006040518083038185875af1925050503d8060008114610256576040519150601f19603f3d011682016040523d82523d6000602084013e61025b565b606091505b505090508061029f576040517f08c379a000000000000000000000000000000000000000000000000000000000815260040161029690610634565b60405180910390fd5b5050565b600034116102e6576040517f08c379a00000000000000000000000000000000000000000000000000000000081526004016102dd906106c6565b60405180910390fd5b346000803373ffffffffffffffffffffffffffffffffffffffff1673ffffffffffffffffffffffffffffffffffffffff16815260200190815260200160002060008282546103349190610715565b92505081905550565b600082825260208201905092915050565b7f526563656976652066756e6374696f6e3a204e6f20457468657220616363657060008201527f7465640000000000000000000000000000000000000000000000000000000000602082015250565b60006103aa60238361033d565b91506103b58261034e565b604082019050919050565b600060208201905081810360008301526103d98161039d565b9050919050565b7f46616c6c6261636b2066756e6374696f6e3a204e6f204574686572206163636560008201527f7074656400000000000000000000000000000000000000000000000000000000602082015250565b600061043c60248361033d565b9150610447826103e0565b604082019050919050565b6000602082019050818103600083015261046b8161042f565b9050919050565b600080fd5b600073ffffffffffffffffffffffffffffffffffffffff82169050919050565b60006104a282610477565b9050919050565b6104b281610497565b81146104bd57600080fd5b50565b6000813590506104cf816104a9565b92915050565b6000602082840312156104eb576104ea610472565b5b60006104f9848285016104c0565b91505092915050565b6000819050919050565b61051581610502565b82525050565b6000602082019050610530600083018461050c565b92915050565b7f496e73756666696369656e742062616c616e6365000000000000000000000000600082015250565b600061056c60148361033d565b915061057782610536565b602082019050919050565b6000602082019050818103600083015261059b8161055f565b9050919050565b600081905092915050565b50565b60006105bd6000836105a2565b91506105c8826105ad565b600082019050919050565b60006105de826105b0565b9150819050919050565b7f5472616e73666572206661696c65640000000000000000000000000000000000600082015250565b600061061e600f8361033d565b9150610629826105e8565b602082019050919050565b6000602082019050818103600083015261064d81610611565b9050919050565b7f4465706f73697420616d6f756e74206d7573742062652067726561746572207460008201527f68616e207a65726f000000000000000000000000000000000000000000000000602082015250565b60006106b060288361033d565b91506106bb82610654565b604082019050919050565b600060208201905081810360008301526106df816106a3565b9050919050565b7f4e487b7100000000000000000000000000000000000000000000000000000000600052601160045260246000fd5b600061072082610502565b915061072b83610502565b9250828201905080821115610743576107426106e6565b5b9291505056fea2646970667358221220725660ad892f2083fb8fdbbf4ca2ba058de8b8fc188731e235886d3d71979caf64736f6c634300081b0033","opcodes":"PUSH1 0x80 PUSH1 0x40 MSTORE CALLVALUE DUP1 ISZERO PUSH1 0xF JUMPI PUSH1 0x0 DUP1 REVERT JUMPDEST POP PUSH2 0x77F DUP1 PUSH2 0x1F PUSH1 0x0 CODECOPY PUSH1 0x0 RETURN INVALID PUSH1 0x80 PUSH1 0x40 MSTORE PUSH1 0x4 CALLDATASIZE LT PUSH2 0x38 JUMPI PUSH1 0x0 CALLDATALOAD PUSH1 0xE0 SHR DUP1 PUSH4 0x27E235E3 EQ PUSH2 0xB3 JUMPI DUP1 PUSH4 0x3CCFD60B EQ PUSH2 0xF0 JUMPI DUP1 PUSH4 0xD0E30DB0 EQ PUSH2 0x107 JUMPI PUSH2 0x78 JUMP JUMPDEST CALLDATASIZE PUSH2 0x78 JUMPI PUSH1 0x40 MLOAD PUSH32 0x8C379A000000000000000000000000000000000000000000000000000000000 DUP2 MSTORE PUSH1 0x4 ADD PUSH2 0x6F SWAP1 PUSH2 0x3C0 JUMP JUMPDEST PUSH1 0x40 MLOAD DUP1 SWAP2 SUB SWAP1 REVERT JUMPDEST PUSH1 0x40 MLOAD PUSH32 0x8C379A000000000000000000000000000000000000000000000000000000000 DUP2 MSTORE PUSH1 0x4 ADD PUSH2 0xAA SWAP1 PUSH2 0x452 JUMP JUMPDEST PUSH1 0x40 MLOAD DUP1 SWAP2 SUB SWAP1 REVERT JUMPDEST CALLVALUE DUP1 ISZERO PUSH2 0xBF JUMPI PUSH1 0x0 DUP1 REVERT JUMPDEST POP PUSH2 0xDA PUSH1 0x4 DUP1 CALLDATASIZE SUB DUP2 ADD SWAP1 PUSH2 0xD5 SWAP2 SWAP1 PUSH2 0x4D5 JUMP JUMPDEST PUSH2 0x111 JUMP JUMPDEST PUSH1 0x40 MLOAD PUSH2 0xE7 SWAP2 SWAP1 PUSH2 0x51B JUMP JUMPDEST PUSH1 0x40 MLOAD DUP1 SWAP2 SUB SWAP1 RETURN JUMPDEST CALLVALUE DUP1 ISZERO PUSH2 0xFC JUMPI PUSH1 0x0 DUP1 REVERT JUMPDEST POP PUSH2 0x105 PUSH2 0x129 JUMP JUMPDEST STOP JUMPDEST PUSH2 0x10F PUSH2 0x2A3 JUMP JUMPDEST STOP JUMPDEST PUSH1 0x0 PUSH1 0x20 MSTORE DUP1 PUSH1 0x0 MSTORE PUSH1 0x40 PUSH1 0x0 KECCAK256 PUSH1 0x0 SWAP2 POP SWAP1 POP SLOAD DUP2 JUMP JUMPDEST PUSH1 0x0 DUP1 PUSH1 0x0 CALLER PUSH20 0xFFFFFFFFFFFFFFFFFFFFFFFFFFFFFFFFFFFFFFFF AND PUSH20 0xFFFFFFFFFFFFFFFFFFFFFFFFFFFFFFFFFFFFFFFF AND DUP2 MSTORE PUSH1 0x20 ADD SWAP1 DUP2 MSTORE PUSH1 0x20 ADD PUSH1 0x0 KECCAK256 SLOAD SWAP1 POP PUSH1 0x0 DUP2 GT PUSH2 0x1AF JUMPI PUSH1 0x40 MLOAD PUSH32 0x8C379A000000000000000000000000000000000000000000000000000000000 DUP2 MSTORE PUSH1 0x4 ADD PUSH2 0x1A6 SWAP1 PUSH2 0x582 JUMP JUMPDEST PUSH1 0x40 MLOAD DUP1 SWAP2 SUB SWAP1 REVERT JUMPDEST PUSH1 0x0 DUP1 PUSH1 0x0 CALLER PUSH20 0xFFFFFFFFFFFFFFFFFFFFFFFFFFFFFFFFFFFFFFFF AND PUSH20 0xFFFFFFFFFFFFFFFFFFFFFFFFFFFFFFFFFFFFFFFF AND DUP2 MSTORE PUSH1 0x20 ADD SWAP1 DUP2 MSTORE PUSH1 0x20 ADD PUSH1 0x0 KECCAK256 DUP2 SWAP1 SSTORE POP PUSH1 0x0 CALLER PUSH20 0xFFFFFFFFFFFFFFFFFFFFFFFFFFFFFFFFFFFFFFFF AND DUP3 PUSH1 0x40 MLOAD PUSH2 0x219 SWAP1 PUSH2 0x5D3 JUMP JUMPDEST PUSH1 0x0 PUSH1 0x40 MLOAD DUP1 DUP4 SUB DUP2 DUP6 DUP8 GAS CALL SWAP3 POP POP POP RETURNDATASIZE DUP1 PUSH1 0x0 DUP2 EQ PUSH2 0x256 JUMPI PUSH1 0x40 MLOAD SWAP2 POP PUSH1 0x1F NOT PUSH1 0x3F RETURNDATASIZE ADD AND DUP3 ADD PUSH1 0x40 MSTORE RETURNDATASIZE DUP3 MSTORE RETURNDATASIZE PUSH1 0x0 PUSH1 0x20 DUP5 ADD RETURNDATACOPY PUSH2 0x25B JUMP JUMPDEST PUSH1 0x60 SWAP2 POP JUMPDEST POP POP SWAP1 POP DUP1 PUSH2 0x29F JUMPI PUSH1 0x40 MLOAD PUSH32 0x8C379A000000000000000000000000000000000000000000000000000000000 DUP2 MSTORE PUSH1 0x4 ADD PUSH2 0x296 SWAP1 PUSH2 0x634 JUMP JUMPDEST PUSH1 0x40 MLOAD DUP1 SWAP2 SUB SWAP1 REVERT JUMPDEST POP POP JUMP JUMPDEST PUSH1 0x0 CALLVALUE GT PUSH2 0x2E6 JUMPI PUSH1 0x40 MLOAD PUSH32 0x8C379A000000000000000000000000000000000000000000000000000000000 DUP2 MSTORE PUSH1 0x4 ADD PUSH2 0x2DD SWAP1 PUSH2 0x6C6 JUMP JUMPDEST PUSH1 0x40 MLOAD DUP1 SWAP2 SUB SWAP1 REVERT JUMPDEST CALLVALUE PUSH1 0x0 DUP1 CALLER PUSH20 0xFFFFFFFFFFFFFFFFFFFFFFFFFFFFFFFFFFFFFFFF AND PUSH20 0xFFFFFFFFFFFFFFFFFFFFFFFFFFFFFFFFFFFFFFFF AND DUP2 MSTORE PUSH1 0x20 ADD SWAP1 DUP2 MSTORE PUSH1 0x20 ADD PUSH1 0x0 KECCAK256 PUSH1 0x0 DUP3 DUP3 SLOAD PUSH2 0x334 SWAP2 SWAP1 PUSH2 0x715 JUMP JUMPDEST SWAP3 POP POP DUP2 SWAP1 SSTORE POP JUMP JUMPDEST PUSH1 0x0 DUP3 DUP3 MSTORE PUSH1 0x20 DUP3 ADD SWAP1 POP SWAP3 SWAP2 POP POP JUMP JUMPDEST PUSH32 0x526563656976652066756E6374696F6E3A204E6F204574686572206163636570 PUSH1 0x0 DUP3 ADD MSTORE PUSH32 0x7465640000000000000000000000000000000000000000000000000000000000 PUSH1 0x20 DUP3 ADD MSTORE POP JUMP JUMPDEST PUSH1 0x0 PUSH2 0x3AA PUSH1 0x23 DUP4 PUSH2 0x33D JUMP JUMPDEST SWAP2 POP PUSH2 0x3B5 DUP3 PUSH2 0x34E JUMP JUMPDEST PUSH1 0x40 DUP3 ADD SWAP1 POP SWAP2 SWAP1 POP JUMP JUMPDEST PUSH1 0x0 PUSH1 0x20 DUP3 ADD SWAP1 POP DUP2 DUP2 SUB PUSH1 0x0 DUP4 ADD MSTORE PUSH2 0x3D9 DUP2 PUSH2 0x39D JUMP JUMPDEST SWAP1 POP SWAP2 SWAP1 POP JUMP JUMPDEST PUSH32 0x46616C6C6261636B2066756E6374696F6E3A204E6F2045746865722061636365 PUSH1 0x0 DUP3 ADD MSTORE PUSH32 0x7074656400000000000000000000000000000000000000000000000000000000 PUSH1 0x20 DUP3 ADD MSTORE POP JUMP JUMPDEST PUSH1 0x0 PUSH2 0x43C PUSH1 0x24 DUP4 PUSH2 0x33D JUMP JUMPDEST SWAP2 POP PUSH2 0x447 DUP3 PUSH2 0x3E0 JUMP JUMPDEST PUSH1 0x40 DUP3 ADD SWAP1 POP SWAP2 SWAP1 POP JUMP JUMPDEST PUSH1 0x0 PUSH1 0x20 DUP3 ADD SWAP1 POP DUP2 DUP2 SUB PUSH1 0x0 DUP4 ADD MSTORE PUSH2 0x46B DUP2 PUSH2 0x42F JUMP JUMPDEST SWAP1 POP SWAP2 SWAP1 POP JUMP JUMPDEST PUSH1 0x0 DUP1 REVERT JUMPDEST PUSH1 0x0 PUSH20 0xFFFFFFFFFFFFFFFFFFFFFFFFFFFFFFFFFFFFFFFF DUP3 AND SWAP1 POP SWAP2 SWAP1 POP JUMP JUMPDEST PUSH1 0x0 PUSH2 0x4A2 DUP3 PUSH2 0x477 JUMP JUMPDEST SWAP1 POP SWAP2 SWAP1 POP JUMP JUMPDEST PUSH2 0x4B2 DUP2 PUSH2 0x497 JUMP JUMPDEST DUP2 EQ PUSH2 0x4BD JUMPI PUSH1 0x0 DUP1 REVERT JUMPDEST POP JUMP JUMPDEST PUSH1 0x0 DUP2 CALLDATALOAD SWAP1 POP PUSH2 0x4CF DUP2 PUSH2 0x4A9 JUMP JUMPDEST SWAP3 SWAP2 POP POP JUMP JUMPDEST PUSH1 0x0 PUSH1 0x20 DUP3 DUP5 SUB SLT ISZERO PUSH2 0x4EB JUMPI PUSH2 0x4EA PUSH2 0x472 JUMP JUMPDEST JUMPDEST PUSH1 0x0 PUSH2 0x4F9 DUP5 DUP3 DUP6 ADD PUSH2 0x4C0 JUMP JUMPDEST SWAP2 POP POP SWAP3 SWAP2 POP POP JUMP JUMPDEST PUSH1 0x0 DUP2 SWAP1 POP SWAP2 SWAP1 POP JUMP JUMPDEST PUSH2 0x515 DUP2 PUSH2 0x502 JUMP JUMPDEST DUP3 MSTORE POP POP JUMP JUMPDEST PUSH1 0x0 PUSH1 0x20 DUP3 ADD SWAP1 POP PUSH2 0x530 PUSH1 0x0 DUP4 ADD DUP5 PUSH2 0x50C JUMP JUMPDEST SWAP3 SWAP2 POP POP JUMP JUMPDEST PUSH32 0x496E73756666696369656E742062616C616E6365000000000000000000000000 PUSH1 0x0 DUP3 ADD MSTORE POP JUMP JUMPDEST PUSH1 0x0 PUSH2 0x56C PUSH1 0x14 DUP4 PUSH2 0x33D JUMP JUMPDEST SWAP2 POP PUSH2 0x577 DUP3 PUSH2 0x536 JUMP JUMPDEST PUSH1 0x20 DUP3 ADD SWAP1 POP SWAP2 SWAP1 POP JUMP JUMPDEST PUSH1 0x0 PUSH1 0x20 DUP3 ADD SWAP1 POP DUP2 DUP2 SUB PUSH1 0x0 DUP4 ADD MSTORE PUSH2 0x59B DUP2 PUSH2 0x55F JUMP JUMPDEST SWAP1 POP SWAP2 SWAP1 POP JUMP JUMPDEST PUSH1 0x0 DUP2 SWAP1 POP SWAP3 SWAP2 POP POP JUMP JUMPDEST POP JUMP JUMPDEST PUSH1 0x0 PUSH2 0x5BD PUSH1 0x0 DUP4 PUSH2 0x5A2 JUMP JUMPDEST SWAP2 POP PUSH2 0x5C8 DUP3 PUSH2 0x5AD JUMP JUMPDEST PUSH1 0x0 DUP3 ADD SWAP1 POP SWAP2 SWAP1 POP JUMP JUMPDEST PUSH1 0x0 PUSH2 0x5DE DUP3 PUSH2 0x5B0 JUMP JUMPDEST SWAP2 POP DUP2 SWAP1 POP SWAP2 SWAP1 POP JUMP JUMPDEST PUSH32 0x5472616E73666572206661696C65640000000000000000000000000000000000 PUSH1 0x0 DUP3 ADD MSTORE POP JUMP JUMPDEST PUSH1 0x0 PUSH2 0x61E PUSH1 0xF DUP4 PUSH2 0x33D JUMP JUMPDEST SWAP2 POP PUSH2 0x629 DUP3 PUSH2 0x5E8 JUMP JUMPDEST PUSH1 0x20 DUP3 ADD SWAP1 POP SWAP2 SWAP1 POP JUMP JUMPDEST PUSH1 0x0 PUSH1 0x20 DUP3 ADD SWAP1 POP DUP2 DUP2 SUB PUSH1 0x0 DUP4 ADD MSTORE PUSH2 0x64D DUP2 PUSH2 0x611 JUMP JUMPDEST SWAP1 POP SWAP2 SWAP1 POP JUMP JUMPDEST PUSH32 0x4465706F73697420616D6F756E74206D75737420626520677265617465722074 PUSH1 0x0 DUP3 ADD MSTORE PUSH32 0x68616E207A65726F000000000000000000000000000000000000000000000000 PUSH1 0x20 DUP3 ADD MSTORE POP JUMP JUMPDEST PUSH1 0x0 PUSH2 0x6B0 PUSH1 0x28 DUP4 PUSH2 0x33D JUMP JUMPDEST SWAP2 POP PUSH2 0x6BB DUP3 PUSH2 0x654 JUMP JUMPDEST PUSH1 0x40 DUP3 ADD SWAP1 POP SWAP2 SWAP1 POP JUMP JUMPDEST PUSH1 0x0 PUSH1 0x20 DUP3 ADD SWAP1 POP DUP2 DUP2 SUB PUSH1 0x0 DUP4 ADD MSTORE PUSH2 0x6DF DUP2 PUSH2 0x6A3 JUMP JUMPDEST SWAP1 POP SWAP2 SWAP1 POP JUMP JUMPDEST PUSH32 0x4E487B7100000000000000000000000000000000000000000000000000000000 PUSH1 0x0 MSTORE PUSH1 0x11 PUSH1 0x4 MSTORE PUSH1 0x24 PUSH1 0x0 REVERT JUMPDEST PUSH1 0x0 PUSH2 0x720 DUP3 PUSH2 0x502 JUMP JUMPDEST SWAP2 POP PUSH2 0x72B DUP4 PUSH2 0x502 JUMP JUMPDEST SWAP3 POP DUP3 DUP3 ADD SWAP1 POP DUP1 DUP3 GT ISZERO PUSH2 0x743 JUMPI PUSH2 0x742 PUSH2 0x6E6 JUMP JUMPDEST JUMPDEST SWAP3 SWAP2 POP POP JUMP INVALID LOG2 PUSH5 0x6970667358 0x22 SLT KECCAK256 PUSH19 0x5660AD892F2083FB8FDBBF4CA2BA058DE8B8FC XOR DUP8 BALANCE 0xE2 CALLDATALOAD DUP9 PUSH14 0x3D71979CAF64736F6C634300081B STOP CALLER "},"methodIdentifiers":{"balances(address)":"27e235e3","deposit()":"d0e30db0","withdraw()":"3ccfd60b"}}}}}