{
  "_format": "hh-sol-artifact-1",
  "contractName": "Attacker",
  "sourceName": "contracts/Attacker.sol",
  "abi": [
    {
      "inputs": [
        {
          "internalType": "address",
          "name": "_targetContractAddress",
          "type": "address"
        }
      ],
      "stateMutability": "nonpayable",
      "type": "constructor"
    },
    {
      "stateMutability": "payable",
      "type": "fallback"
    },
    {
      "inputs": [],
      "name": "attack",
      "outputs": [],
      "stateMutability": "payable",
      "type": "function"
    },
    {
      "inputs": [],
      "name": "targetContract",
      "outputs": [
        {
          "internalType": "contract SecureContract",
          "name": "",
          "type": "address"
        }
      ],
      "stateMutability": "view",
      "type": "function"
    },
    {
      "stateMutability": "payable",
      "type": "receive"
    }
  ],
  "bytecode": "0x608060405234801561001057600080fd5b5060405161047b38038061047b833981810160405281019061003291906100db565b806000806101000a81548173ffffffffffffffffffffffffffffffffffffffff021916908373ffffffffffffffffffffffffffffffffffffffff16021790555050610108565b600080fd5b600073ffffffffffffffffffffffffffffffffffffffff82169050919050565b60006100a88261007d565b9050919050565b6100b88161009d565b81146100c357600080fd5b50565b6000815190506100d5816100af565b92915050565b6000602082840312156100f1576100f0610078565b5b60006100ff848285016100c6565b91505092915050565b610364806101176000396000f3fe60806040526004361061002d5760003560e01c80639e5faafc146100f8578063bd90df701461010257610034565b3661003457005b60008060009054906101000a900473ffffffffffffffffffffffffffffffffffffffff1673ffffffffffffffffffffffffffffffffffffffff163111156100f65760008054906101000a900473ffffffffffffffffffffffffffffffffffffffff1673ffffffffffffffffffffffffffffffffffffffff16633ccfd60b6040518163ffffffff1660e01b8152600401600060405180830381600087803b1580156100dd57600080fd5b505af11580156100f1573d6000803e3d6000fd5b505050505b005b61010061012d565b005b34801561010e57600080fd5b506101176101f3565b6040516101249190610296565b60405180910390f35b60003411610170576040517f08c379a00000000000000000000000000000000000000000000000000000000081526004016101679061030e565b60405180910390fd5b60008054906101000a900473ffffffffffffffffffffffffffffffffffffffff1673ffffffffffffffffffffffffffffffffffffffff1663d0e30db0346040518263ffffffff1660e01b81526004016000604051808303818588803b1580156101d857600080fd5b505af11580156101ec573d6000803e3d6000fd5b5050505050565b60008054906101000a900473ffffffffffffffffffffffffffffffffffffffff1681565b600073ffffffffffffffffffffffffffffffffffffffff82169050919050565b6000819050919050565b600061025c61025761025284610217565b610237565b610217565b9050919050565b600061026e82610241565b9050919050565b600061028082610263565b9050919050565b61029081610275565b82525050565b60006020820190506102ab6000830184610287565b92915050565b600082825260208201905092915050565b7f41747461636b2072657175697265732061206465706f73697400000000000000600082015250565b60006102f86019836102b1565b9150610303826102c2565b602082019050919050565b60006020820190508181036000830152610327816102eb565b905091905056fea2646970667358221220bbd75e4a3358f6fe84ef4fcb420765d383a161a0c43ab69d7098218a5ee28fb964736f6c634300081b0033",
  "linkReferences": {},
  "deployedLinkReferences": {}
}