{
  "_format": "hh-sol-artifact-1",
  "contractName": "SecureContract",
  "sourceName": "contracts/SecureContract.sol",
  "abi": [
    {
      "stateMutability": "payable",
      "type": "fallback"
    },
    {
      "inputs": [
        {
          "internalType": "address",
          "name": "",
          "type": "address"
        }
      ],
      "name": "balances",
      "outputs": [
        {
          "internalType": "uint256",
          "name": "",
          "type": "uint256"
        }
      ],
      "stateMutability": "view",
      "type": "function"
    },
    {
      "inputs": [],
      "name": "deposit",
      "outputs": [],
      "stateMutability": "payable",
      "type": "function"
    },
    {
      "inputs": [],
      "name": "withdraw",
      "outputs": [],
      "stateMutability": "nonpayable",
      "type": "function"
    },
    {
      "stateMutability": "payable",
      "type": "receive"
    }
  ],
  "bytecode": "0x6080604052348015600f57600080fd5b5061077f8061001f6000396000f3fe6080604052600436106100385760003560e01c806327e235e3146100b35780633ccfd60b146100f0578063d0e30db01461010757610078565b36610078576040517f08c379a000000000000000000000000000000000000000000000000000000000815260040161006f906103c0565b60405180910390fd5b6040517f08c379a00000000000000000000000000000000000000000000000000000000081526004016100aa90610452565b60405180910390fd5b3480156100bf57600080fd5b506100da60048036038101906100d591906104d5565b610111565b6040516100e7919061051b565b60405180910390f35b3480156100fc57600080fd5b50610105610129565b005b61010f6102a3565b005b60006020528060005260406000206000915090505481565b60008060003373ffffffffffffffffffffffffffffffffffffffff1673ffffffffffffffffffffffffffffffffffffffff168152602001908152602001600020549050600081116101af576040517f08c379a00000000000000000000000000000000000000000000000000000000081526004016101a690610582565b60405180910390fd5b60008060003373ffffffffffffffffffffffffffffffffffffffff1673ffffffffffffffffffffffffffffffffffffffff1681526020019081526020016000208190555060003373ffffffffffffffffffffffffffffffffffffffff1682604051610219906105d3565b60006040518083038185875af1925050503d8060008114610256576040519150601f19603f3d011682016040523d82523d6000602084013e61025b565b606091505b505090508061029f576040517f08c379a000000000000000000000000000000000000000000000000000000000815260040161029690610634565b60405180910390fd5b5050565b600034116102e6576040517f08c379a00000000000000000000000000000000000000000000000000000000081526004016102dd906106c6565b60405180910390fd5b346000803373ffffffffffffffffffffffffffffffffffffffff1673ffffffffffffffffffffffffffffffffffffffff16815260200190815260200160002060008282546103349190610715565b92505081905550565b600082825260208201905092915050565b7f526563656976652066756e6374696f6e3a204e6f20457468657220616363657060008201527f7465640000000000000000000000000000000000000000000000000000000000602082015250565b60006103aa60238361033d565b91506103b58261034e565b604082019050919050565b600060208201905081810360008301526103d98161039d565b9050919050565b7f46616c6c6261636b2066756e6374696f6e3a204e6f204574686572206163636560008201527f7074656400000000000000000000000000000000000000000000000000000000602082015250565b600061043c60248361033d565b9150610447826103e0565b604082019050919050565b6000602082019050818103600083015261046b8161042f565b9050919050565b600080fd5b600073ffffffffffffffffffffffffffffffffffffffff82169050919050565b60006104a282610477565b9050919050565b6104b281610497565b81146104bd57600080fd5b50565b6000813590506104cf816104a9565b92915050565b6000602082840312156104eb576104ea610472565b5b60006104f9848285016104c0565b91505092915050565b6000819050919050565b61051581610502565b82525050565b6000602082019050610530600083018461050c565b92915050565b7f496e73756666696369656e742062616c616e6365000000000000000000000000600082015250565b600061056c60148361033d565b915061057782610536565b602082019050919050565b6000602082019050818103600083015261059b8161055f565b9050919050565b600081905092915050565b50565b60006105bd6000836105a2565b91506105c8826105ad565b600082019050919050565b60006105de826105b0565b9150819050919050565b7f5472616e73666572206661696c65640000000000000000000000000000000000600082015250565b600061061e600f8361033d565b9150610629826105e8565b602082019050919050565b6000602082019050818103600083015261064d81610611565b9050919050565b7f4465706f73697420616d6f756e74206d7573742062652067726561746572207460008201527f68616e207a65726f000000000000000000000000000000000000000000000000602082015250565b60006106b060288361033d565b91506106bb82610654565b604082019050919050565b600060208201905081810360008301526106df816106a3565b9050919050565b7f4e487b7100000000000000000000000000000000000000000000000000000000600052601160045260246000fd5b600061072082610502565b915061072b83610502565b9250828201905080821115610743576107426106e6565b5b9291505056fea2646970667358221220725660ad892f2083fb8fdbbf4ca2ba058de8b8fc188731e235886d3d71979caf64736f6c634300081b0033",
  "linkReferences": {},
  "deployedLinkReferences": {}
}